{
  "_format": "hh-sol-artifact-1",
  "contractName": "EventTicket",
  "sourceName": "contracts/EventTicket.sol",
  "abi": [
    {
      "inputs": [],
      "stateMutability": "nonpayable",
      "type": "constructor"
    },
    {
      "inputs": [
        {
          "internalType": "address",
          "name": "sender",
          "type": "address"
        },
        {
          "internalType": "uint256",
          "name": "balance",
          "type": "uint256"
        },
        {
          "internalType": "uint256",
          "name": "needed",
          "type": "uint256"
        },
        {
          "internalType": "uint256",
          "name": "tokenId",
          "type": "uint256"
        }
      ],
      "name": "ERC1155InsufficientBalance",
      "type": "error"
    },
    {
      "inputs": [
        {
          "internalType": "address",
          "name": "approver",
          "type": "address"
        }
      ],
      "name": "ERC1155InvalidApprover",
      "type": "error"
    },
    {
      "inputs": [
        {
          "internalType": "uint256",
          "name": "idsLength",
          "type": "uint256"
        },
        {
          "internalType": "uint256",
          "name": "valuesLength",
          "type": "uint256"
        }
      ],
      "name": "ERC1155InvalidArrayLength",
      "type": "error"
    },
    {
      "inputs": [
        {
          "internalType": "address",
          "name": "operator",
          "type": "address"
        }
      ],
      "name": "ERC1155InvalidOperator",
      "type": "error"
    },
    {
      "inputs": [
        {
          "internalType": "address",
          "name": "receiver",
          "type": "address"
        }
      ],
      "name": "ERC1155InvalidReceiver",
      "type": "error"
    },
    {
      "inputs": [
        {
          "internalType": "address",
          "name": "sender",
          "type": "address"
        }
      ],
      "name": "ERC1155InvalidSender",
      "type": "error"
    },
    {
      "inputs": [
        {
          "internalType": "address",
          "name": "operator",
          "type": "address"
        },
        {
          "internalType": "address",
          "name": "owner",
          "type": "address"
        }
      ],
      "name": "ERC1155MissingApprovalForAll",
      "type": "error"
    },
    {
      "inputs": [
        {
          "internalType": "address",
          "name": "owner",
          "type": "address"
        }
      ],
      "name": "OwnableInvalidOwner",
      "type": "error"
    },
    {
      "inputs": [
        {
          "internalType": "address",
          "name": "account",
          "type": "address"
        }
      ],
      "name": "OwnableUnauthorizedAccount",
      "type": "error"
    },
    {
      "anonymous": false,
      "inputs": [
        {
          "indexed": true,
          "internalType": "address",
          "name": "account",
          "type": "address"
        },
        {
          "indexed": true,
          "internalType": "address",
          "name": "operator",
          "type": "address"
        },
        {
          "indexed": false,
          "internalType": "bool",
          "name": "approved",
          "type": "bool"
        }
      ],
      "name": "ApprovalForAll",
      "type": "event"
    },
    {
      "anonymous": false,
      "inputs": [
        {
          "indexed": true,
          "internalType": "uint256",
          "name": "eventId",
          "type": "uint256"
        },
        {
          "indexed": false,
          "internalType": "string",
          "name": "name",
          "type": "string"
        },
        {
          "indexed": false,
          "internalType": "uint256",
          "name": "maxParticipants",
          "type": "uint256"
        },
        {
          "indexed": false,
          "internalType": "uint256",
          "name": "basePrice",
          "type": "uint256"
        },
        {
          "indexed": false,
          "internalType": "string",
          "name": "cid",
          "type": "string"
        }
      ],
      "name": "EventCreated",
      "type": "event"
    },
    {
      "anonymous": false,
      "inputs": [
        {
          "indexed": true,
          "internalType": "address",
          "name": "previousOwner",
          "type": "address"
        },
        {
          "indexed": true,
          "internalType": "address",
          "name": "newOwner",
          "type": "address"
        }
      ],
      "name": "OwnershipTransferred",
      "type": "event"
    },
    {
      "anonymous": false,
      "inputs": [
        {
          "indexed": true,
          "internalType": "address",
          "name": "buyer",
          "type": "address"
        },
        {
          "indexed": true,
          "internalType": "uint256",
          "name": "eventId",
          "type": "uint256"
        },
        {
          "indexed": false,
          "internalType": "uint256",
          "name": "price",
          "type": "uint256"
        }
      ],
      "name": "TicketPurchased",
      "type": "event"
    },
    {
      "anonymous": false,
      "inputs": [
        {
          "indexed": true,
          "internalType": "address",
          "name": "seller",
          "type": "address"
        },
        {
          "indexed": true,
          "internalType": "uint256",
          "name": "eventId",
          "type": "uint256"
        },
        {
          "indexed": false,
          "internalType": "uint256",
          "name": "refundAmount",
          "type": "uint256"
        }
      ],
      "name": "TicketResold",
      "type": "event"
    },
    {
      "anonymous": false,
      "inputs": [
        {
          "indexed": true,
          "internalType": "address",
          "name": "from",
          "type": "address"
        },
        {
          "indexed": true,
          "internalType": "address",
          "name": "to",
          "type": "address"
        },
        {
          "indexed": true,
          "internalType": "uint256",
          "name": "eventId",
          "type": "uint256"
        },
        {
          "indexed": false,
          "internalType": "uint256",
          "name": "amount",
          "type": "uint256"
        }
      ],
      "name": "TicketTransferred",
      "type": "event"
    },
    {
      "anonymous": false,
      "inputs": [
        {
          "indexed": true,
          "internalType": "address",
          "name": "operator",
          "type": "address"
        },
        {
          "indexed": true,
          "internalType": "address",
          "name": "from",
          "type": "address"
        },
        {
          "indexed": true,
          "internalType": "address",
          "name": "to",
          "type": "address"
        },
        {
          "indexed": false,
          "internalType": "uint256[]",
          "name": "ids",
          "type": "uint256[]"
        },
        {
          "indexed": false,
          "internalType": "uint256[]",
          "name": "values",
          "type": "uint256[]"
        }
      ],
      "name": "TransferBatch",
      "type": "event"
    },
    {
      "anonymous": false,
      "inputs": [
        {
          "indexed": true,
          "internalType": "address",
          "name": "operator",
          "type": "address"
        },
        {
          "indexed": true,
          "internalType": "address",
          "name": "from",
          "type": "address"
        },
        {
          "indexed": true,
          "internalType": "address",
          "name": "to",
          "type": "address"
        },
        {
          "indexed": false,
          "internalType": "uint256",
          "name": "id",
          "type": "uint256"
        },
        {
          "indexed": false,
          "internalType": "uint256",
          "name": "value",
          "type": "uint256"
        }
      ],
      "name": "TransferSingle",
      "type": "event"
    },
    {
      "anonymous": false,
      "inputs": [
        {
          "indexed": false,
          "internalType": "string",
          "name": "value",
          "type": "string"
        },
        {
          "indexed": true,
          "internalType": "uint256",
          "name": "id",
          "type": "uint256"
        }
      ],
      "name": "URI",
      "type": "event"
    },
    {
      "inputs": [
        {
          "internalType": "address",
          "name": "account",
          "type": "address"
        },
        {
          "internalType": "uint256",
          "name": "id",
          "type": "uint256"
        }
      ],
      "name": "balanceOf",
      "outputs": [
        {
          "internalType": "uint256",
          "name": "",
          "type": "uint256"
        }
      ],
      "stateMutability": "view",
      "type": "function"
    },
    {
      "inputs": [
        {
          "internalType": "address[]",
          "name": "accounts",
          "type": "address[]"
        },
        {
          "internalType": "uint256[]",
          "name": "ids",
          "type": "uint256[]"
        }
      ],
      "name": "balanceOfBatch",
      "outputs": [
        {
          "internalType": "uint256[]",
          "name": "",
          "type": "uint256[]"
        }
      ],
      "stateMutability": "view",
      "type": "function"
    },
    {
      "inputs": [
        {
          "internalType": "uint256",
          "name": "eventId",
          "type": "uint256"
        }
      ],
      "name": "buyTicket",
      "outputs": [],
      "stateMutability": "payable",
      "type": "function"
    },
    {
      "inputs": [
        {
          "internalType": "string",
          "name": "name",
          "type": "string"
        },
        {
          "internalType": "string",
          "name": "description",
          "type": "string"
        },
        {
          "internalType": "uint256",
          "name": "basePrice",
          "type": "uint256"
        },
        {
          "internalType": "uint256",
          "name": "maxParticipants",
          "type": "uint256"
        },
        {
          "internalType": "string",
          "name": "cid",
          "type": "string"
        }
      ],
      "name": "createEvent",
      "outputs": [
        {
          "internalType": "uint256",
          "name": "",
          "type": "uint256"
        }
      ],
      "stateMutability": "nonpayable",
      "type": "function"
    },
    {
      "inputs": [
        {
          "internalType": "uint256",
          "name": "",
          "type": "uint256"
        }
      ],
      "name": "events",
      "outputs": [
        {
          "internalType": "uint256",
          "name": "eventId",
          "type": "uint256"
        },
        {
          "internalType": "string",
          "name": "name",
          "type": "string"
        },
        {
          "internalType": "string",
          "name": "description",
          "type": "string"
        },
        {
          "internalType": "uint256",
          "name": "maxParticipants",
          "type": "uint256"
        },
        {
          "internalType": "uint256",
          "name": "basePrice",
          "type": "uint256"
        },
        {
          "internalType": "uint256",
          "name": "currentSupply",
          "type": "uint256"
        },
        {
          "internalType": "string",
          "name": "cid",
          "type": "string"
        },
        {
          "internalType": "bool",
          "name": "active",
          "type": "bool"
        }
      ],
      "stateMutability": "view",
      "type": "function"
    },
    {
      "inputs": [],
      "name": "getAllEvents",
      "outputs": [
        {
          "components": [
            {
              "internalType": "uint256",
              "name": "eventId",
              "type": "uint256"
            },
            {
              "internalType": "string",
              "name": "name",
              "type": "string"
            },
            {
              "internalType": "string",
              "name": "description",
              "type": "string"
            },
            {
              "internalType": "uint256",
              "name": "maxParticipants",
              "type": "uint256"
            },
            {
              "internalType": "uint256",
              "name": "basePrice",
              "type": "uint256"
            },
            {
              "internalType": "uint256",
              "name": "currentSupply",
              "type": "uint256"
            },
            {
              "internalType": "string",
              "name": "cid",
              "type": "string"
            },
            {
              "internalType": "bool",
              "name": "active",
              "type": "bool"
            }
          ],
          "internalType": "struct EventTicket.Event[]",
          "name": "",
          "type": "tuple[]"
        },
        {
          "internalType": "string[]",
          "name": "",
          "type": "string[]"
        }
      ],
      "stateMutability": "view",
      "type": "function"
    },
    {
      "inputs": [
        {
          "internalType": "uint256",
          "name": "eventId",
          "type": "uint256"
        }
      ],
      "name": "getCurrentPrice",
      "outputs": [
        {
          "internalType": "uint256",
          "name": "",
          "type": "uint256"
        }
      ],
      "stateMutability": "view",
      "type": "function"
    },
    {
      "inputs": [
        {
          "internalType": "uint256",
          "name": "eventId",
          "type": "uint256"
        }
      ],
      "name": "getEventStats",
      "outputs": [
        {
          "internalType": "uint256",
          "name": "sold",
          "type": "uint256"
        },
        {
          "internalType": "uint256",
          "name": "remaining",
          "type": "uint256"
        }
      ],
      "stateMutability": "view",
      "type": "function"
    },
    {
      "inputs": [
        {
          "internalType": "uint256",
          "name": "eventId",
          "type": "uint256"
        }
      ],
      "name": "getEventURI",
      "outputs": [
        {
          "internalType": "string",
          "name": "",
          "type": "string"
        }
      ],
      "stateMutability": "view",
      "type": "function"
    },
    {
      "inputs": [],
      "name": "getNextEventId",
      "outputs": [
        {
          "internalType": "uint256",
          "name": "",
          "type": "uint256"
        }
      ],
      "stateMutability": "view",
      "type": "function"
    },
    {
      "inputs": [
        {
          "internalType": "address",
          "name": "user",
          "type": "address"
        },
        {
          "internalType": "uint256",
          "name": "eventId",
          "type": "uint256"
        }
      ],
      "name": "getTicketBalance",
      "outputs": [
        {
          "internalType": "uint256",
          "name": "",
          "type": "uint256"
        }
      ],
      "stateMutability": "view",
      "type": "function"
    },
    {
      "inputs": [
        {
          "internalType": "uint256",
          "name": "",
          "type": "uint256"
        },
        {
          "internalType": "address",
          "name": "",
          "type": "address"
        }
      ],
      "name": "hasResold",
      "outputs": [
        {
          "internalType": "bool",
          "name": "",
          "type": "bool"
        }
      ],
      "stateMutability": "view",
      "type": "function"
    },
    {
      "inputs": [
        {
          "internalType": "address",
          "name": "account",
          "type": "address"
        },
        {
          "internalType": "address",
          "name": "operator",
          "type": "address"
        }
      ],
      "name": "isApprovedForAll",
      "outputs": [
        {
          "internalType": "bool",
          "name": "",
          "type": "bool"
        }
      ],
      "stateMutability": "view",
      "type": "function"
    },
    {
      "inputs": [
        {
          "internalType": "address",
          "name": "",
          "type": "address"
        },
        {
          "internalType": "address",
          "name": "",
          "type": "address"
        },
        {
          "internalType": "uint256[]",
          "name": "",
          "type": "uint256[]"
        },
        {
          "internalType": "uint256[]",
          "name": "",
          "type": "uint256[]"
        },
        {
          "internalType": "bytes",
          "name": "",
          "type": "bytes"
        }
      ],
      "name": "onERC1155BatchReceived",
      "outputs": [
        {
          "internalType": "bytes4",
          "name": "",
          "type": "bytes4"
        }
      ],
      "stateMutability": "pure",
      "type": "function"
    },
    {
      "inputs": [
        {
          "internalType": "address",
          "name": "",
          "type": "address"
        },
        {
          "internalType": "address",
          "name": "",
          "type": "address"
        },
        {
          "internalType": "uint256",
          "name": "",
          "type": "uint256"
        },
        {
          "internalType": "uint256",
          "name": "",
          "type": "uint256"
        },
        {
          "internalType": "bytes",
          "name": "",
          "type": "bytes"
        }
      ],
      "name": "onERC1155Received",
      "outputs": [
        {
          "internalType": "bytes4",
          "name": "",
          "type": "bytes4"
        }
      ],
      "stateMutability": "pure",
      "type": "function"
    },
    {
      "inputs": [],
      "name": "owner",
      "outputs": [
        {
          "internalType": "address",
          "name": "",
          "type": "address"
        }
      ],
      "stateMutability": "view",
      "type": "function"
    },
    {
      "inputs": [],
      "name": "renounceOwnership",
      "outputs": [],
      "stateMutability": "nonpayable",
      "type": "function"
    },
    {
      "inputs": [
        {
          "internalType": "uint256",
          "name": "eventId",
          "type": "uint256"
        }
      ],
      "name": "resellTicket",
      "outputs": [],
      "stateMutability": "nonpayable",
      "type": "function"
    },
    {
      "inputs": [
        {
          "internalType": "address",
          "name": "from",
          "type": "address"
        },
        {
          "internalType": "address",
          "name": "to",
          "type": "address"
        },
        {
          "internalType": "uint256[]",
          "name": "ids",
          "type": "uint256[]"
        },
        {
          "internalType": "uint256[]",
          "name": "values",
          "type": "uint256[]"
        },
        {
          "internalType": "bytes",
          "name": "data",
          "type": "bytes"
        }
      ],
      "name": "safeBatchTransferFrom",
      "outputs": [],
      "stateMutability": "nonpayable",
      "type": "function"
    },
    {
      "inputs": [
        {
          "internalType": "address",
          "name": "from",
          "type": "address"
        },
        {
          "internalType": "address",
          "name": "to",
          "type": "address"
        },
        {
          "internalType": "uint256",
          "name": "id",
          "type": "uint256"
        },
        {
          "internalType": "uint256",
          "name": "value",
          "type": "uint256"
        },
        {
          "internalType": "bytes",
          "name": "data",
          "type": "bytes"
        }
      ],
      "name": "safeTransferFrom",
      "outputs": [],
      "stateMutability": "nonpayable",
      "type": "function"
    },
    {
      "inputs": [
        {
          "internalType": "address",
          "name": "operator",
          "type": "address"
        },
        {
          "internalType": "bool",
          "name": "approved",
          "type": "bool"
        }
      ],
      "name": "setApprovalForAll",
      "outputs": [],
      "stateMutability": "nonpayable",
      "type": "function"
    },
    {
      "inputs": [
        {
          "internalType": "bytes4",
          "name": "interfaceId",
          "type": "bytes4"
        }
      ],
      "name": "supportsInterface",
      "outputs": [
        {
          "internalType": "bool",
          "name": "",
          "type": "bool"
        }
      ],
      "stateMutability": "view",
      "type": "function"
    },
    {
      "inputs": [
        {
          "internalType": "address",
          "name": "newOwner",
          "type": "address"
        }
      ],
      "name": "transferOwnership",
      "outputs": [],
      "stateMutability": "nonpayable",
      "type": "function"
    },
    {
      "inputs": [
        {
          "internalType": "uint256",
          "name": "",
          "type": "uint256"
        }
      ],
      "name": "uri",
      "outputs": [
        {
          "internalType": "string",
          "name": "",
          "type": "string"
        }
      ],
      "stateMutability": "view",
      "type": "function"
    }
  ],
  "bytecode": "0x6080604052600160045534801561001557600080fd5b5060408051602081019091526000815233906100308161006e565b506001600160a01b03811661005f57604051631e4fbdf760e01b81526000600482015260240160405180910390fd5b6100688161007e565b5061022d565b600261007a828261016f565b5050565b600380546001600160a01b038381166001600160a01b0319831681179093556040519116919082907f8be0079c531659141344cd1fd0a4f28419497f9722a3daafe3b4186f6b6457e090600090a35050565b634e487b7160e01b600052604160045260246000fd5b600181811c908216806100fa57607f821691505b60208210810361011a57634e487b7160e01b600052602260045260246000fd5b50919050565b601f82111561016a57806000526020600020601f840160051c810160208510156101475750805b601f840160051c820191505b818110156101675760008155600101610153565b50505b505050565b81516001600160401b03811115610188576101886100d0565b61019c8161019684546100e6565b84610120565b6020601f8211600181146101d057600083156101b85750848201515b600019600385901b1c1916600184901b178455610167565b600084815260208120601f198516915b8281101561020057878501518255602094850194600190920191016101e0565b508482101561021e5786840151600019600387901b60f8161c191681555b50505050600190811b01905550565b612b448061023c6000396000f3fe60806040526004361061014a5760003560e01c80638da5cb5b116100b6578063ce4b46f31161006f578063ce4b46f314610407578063e985e9c514610442578063f23a6e6114610462578063f242432a1461048f578063f2fde38b146104af578063fdfe49dd146104cf57600080fd5b80638da5cb5b1461031f5780639df5be6e14610347578063a22cb4651461035c578063bc197c811461037c578063c27a500d146103c4578063c55d0f56146103e757600080fd5b80632eb2c2d6116101085780632eb2c2d6146102685780634e1273f41461028a57806364ebdc18146102b757806367dd74ca146102d7578063715018a6146102ea578063836c2488146102ff57600080fd5b8062fdd58e1461014f57806301ffc9a7146101825780630b791430146101b25780630e89341c146101e657806322369f0b1461021357806325a19f0414610233575b600080fd5b34801561015b57600080fd5b5061016f61016a366004611e92565b6104ef565b6040519081526020015b60405180910390f35b34801561018e57600080fd5b506101a261019d366004611ed2565b610517565b6040519015158152602001610179565b3480156101be57600080fd5b506101d26101cd366004611eef565b610567565b604051610179989796959493929190611f58565b3480156101f257600080fd5b50610206610201366004611eef565b610743565b6040516101799190611fc3565b34801561021f57600080fd5b5061020661022e366004611eef565b6107d7565b34801561023f57600080fd5b5061025361024e366004611eef565b610a59565b60408051928352602083019190915201610179565b34801561027457600080fd5b50610288610283366004612122565b610a90565b005b34801561029657600080fd5b506102aa6102a53660046121d5565b610af7565b60405161017991906122d8565b3480156102c357600080fd5b506102886102d2366004611eef565b610bc3565b6102886102e5366004611eef565b610d8f565b3480156102f657600080fd5b50610288610f24565b34801561030b57600080fd5b5061016f61031a3660046122eb565b610f38565b34801561032b57600080fd5b506003546040516001600160a01b039091168152602001610179565b34801561035357600080fd5b5060045461016f565b34801561036857600080fd5b50610288610377366004612377565b611097565b34801561038857600080fd5b506103ab61039736600461243f565b63bc197c8160e01b98975050505050505050565b6040516001600160e01b03199091168152602001610179565b3480156103d057600080fd5b506103d96110a6565b60405161017992919061255f565b3480156103f357600080fd5b5061016f610402366004611eef565b611431565b34801561041357600080fd5b506101a261042236600461264e565b600660209081526000928352604080842090915290825290205460ff1681565b34801561044e57600080fd5b506101a261045d36600461267a565b6116bd565b34801561046e57600080fd5b506103ab61047d3660046126a4565b63f23a6e6160e01b9695505050505050565b34801561049b57600080fd5b506102886104aa36600461271b565b6116eb565b3480156104bb57600080fd5b506102886104ca366004612773565b61174a565b3480156104db57600080fd5b5061016f6104ea366004611e92565b611788565b6000818152602081815260408083206001600160a01b03861684529091529020545b92915050565b60006001600160e01b03198216636cdb3d1360e11b148061054857506001600160e01b031982166303a24d0760e21b145b8061051157506301ffc9a760e01b6001600160e01b0319831614610511565b600560205260009081526040902080546001820180549192916105899061278e565b80601f01602080910402602001604051908101604052809291908181526020018280546105b59061278e565b80156106025780601f106105d757610100808354040283529160200191610602565b820191906000526020600020905b8154815290600101906020018083116105e557829003601f168201915b5050505050908060020180546106179061278e565b80601f01602080910402602001604051908101604052809291908181526020018280546106439061278e565b80156106905780601f1061066557610100808354040283529160200191610690565b820191906000526020600020905b81548152906001019060200180831161067357829003601f168201915b5050505050908060030154908060040154908060050154908060060180546106b79061278e565b80601f01602080910402602001604051908101604052809291908181526020018280546106e39061278e565b80156107305780601f1061070557610100808354040283529160200191610730565b820191906000526020600020905b81548152906001019060200180831161071357829003601f168201915b5050506007909301549192505060ff1688565b6060600280546107529061278e565b80601f016020809104026020016040519081016040528092919081815260200182805461077e9061278e565b80156107cb5780601f106107a0576101008083540402835291602001916107cb565b820191906000526020600020905b8154815290600101906020018083116107ae57829003601f168201915b50505050509050919050565b60008181526005602090815260408083208151610100810190925280548252600181018054606095948401919061080d9061278e565b80601f01602080910402602001604051908101604052809291908181526020018280546108399061278e565b80156108865780601f1061085b57610100808354040283529160200191610886565b820191906000526020600020905b81548152906001019060200180831161086957829003601f168201915b5050505050815260200160028201805461089f9061278e565b80601f01602080910402602001604051908101604052809291908181526020018280546108cb9061278e565b80156109185780601f106108ed57610100808354040283529160200191610918565b820191906000526020600020905b8154815290600101906020018083116108fb57829003601f168201915b5050505050815260200160038201548152602001600482015481526020016005820154815260200160068201805461094f9061278e565b80601f016020809104026020016040519081016040528092919081815260200182805461097b9061278e565b80156109c85780601f1061099d576101008083540402835291602001916109c8565b820191906000526020600020905b8154815290600101906020018083116109ab57829003601f168201915b50505091835250506007919091015460ff1615156020909101528051909150600003610a2d5760405162461bcd60e51b815260206004820152600f60248201526e115d995b9d081b9bdd08199bdd5b99608a1b60448201526064015b60405180910390fd5b8060c00151604051602001610a4291906127c8565b604051602081830303815290604052915050919050565b60008181526005602081905260408220908101546003820154839291908390610a83908390612849565b9196919550909350505050565b336001600160a01b0386168114801590610ab15750610aaf86826116bd565b155b15610ae25760405163711bec9160e11b81526001600160a01b03808316600483015287166024820152604401610a24565b610aef868686868661179b565b505050505050565b60608151835114610b285781518351604051635b05999160e01b815260048101929092526024820152604401610a24565b600083516001600160401b03811115610b4357610b43611fd6565b604051908082528060200260200182016040528015610b6c578160200160208202803683370190505b50905060005b8451811015610bbb57602080820286010151610b96906020808402870101516104ef565b828281518110610ba857610ba861285c565b6020908102919091010152600101610b72565b509392505050565b6000610bcf33836104ef565b11610c0e5760405162461bcd60e51b815260206004820152600f60248201526e139bc81d1a58dad95d081bdddb9959608a1b6044820152606401610a24565b600081815260066020908152604080832033845290915290205460ff1615610c695760405162461bcd60e51b815260206004820152600e60248201526d105b1c9958591e481c995cdbdb1960921b6044820152606401610a24565b610c86333083600160405180602001604052806000815250611802565b60008181526006602090815260408083203384528252808320805460ff19166001179055838352600591829052822001805491610cc283612872565b919050555060006064610cd483611431565b610cdf90605a61288b565b610ce991906128a2565b604051909150339082156108fc029083906000818181858888f19350505050158015610d19573d6000803e3d6000fd5b50604051818152829033907f3c3c183db5068dc25b0d9a00c2dca778d5522334adf1e617d5a70615978fbe329060200160405180910390a3604051600181528290309033907fecd158b7347ab7a0d677c96ec27bee91734356f1a99f8b392083c60dd5031c9f9060200160405180910390a45050565b6000818152600560205260409020600781015460ff16610de75760405162461bcd60e51b81526020600482015260136024820152724576656e74206973206e6f742061637469766560681b6044820152606401610a24565b6000816005015411610e265760405162461bcd60e51b815260206004820152600860248201526714dbdb19081bdd5d60c21b6044820152606401610a24565b6000610e3183611431565b905080341015610e7a5760405162461bcd60e51b8152602060048201526014602482015273125b9cdd59999a58da595b9d081c185e5b595b9d60621b6044820152606401610a24565b600582018054906000610e8c836128c4565b9190505550610eae303385600160405180602001604052806000815250611802565b604051818152839033907f2a91574e12ad96234e84923e146b0946ecfb871cd8d5534dc1fdcbe87a7c01b39060200160405180910390a3604051600181528390339030907fecd158b7347ab7a0d677c96ec27bee91734356f1a99f8b392083c60dd5031c9f9060200160405180910390a4505050565b610f2c611890565b610f3660006118bd565b565b6000610f42611890565b6004805460009182610f5383612872565b9190505590506040518061010001604052808281526020018881526020018781526020018581526020018681526020018581526020018481526020016001151581525060056000838152602001908152602001600020600082015181600001556020820151816001019081610fc89190612927565b5060408201516002820190610fdd9082612927565b50606082015160038201556080820151600482015560a0820151600582015560c082015160068201906110109082612927565b5060e08201518160070160006101000a81548160ff02191690831515021790555090505061104f3082866040518060200160405280600081525061190f565b807fbb3e1bbacd2f8f590c705be970ffc43e3527b1485e086f2fe4096207ec6dbc5b8886888760405161108594939291906129e5565b60405180910390a29695505050505050565b6110a233838361196c565b5050565b606080600060016004546110ba9190612849565b6001600160401b038111156110d1576110d1611fd6565b60405190808252806020026020018201604052801561114c57816020015b611139604051806101000160405280600081526020016060815260200160608152602001600081526020016000815260200160008152602001606081526020016000151581525090565b8152602001906001900390816110ef5790505b509050600060016004546111609190612849565b6001600160401b0381111561117757611177611fd6565b6040519080825280602002602001820160405280156111aa57816020015b60608152602001906001900390816111955790505b50905060015b600454811015611427576005600082815260200190815260200160002060405180610100016040529081600082015481526020016001820180546111f39061278e565b80601f016020809104026020016040519081016040528092919081815260200182805461121f9061278e565b801561126c5780601f106112415761010080835404028352916020019161126c565b820191906000526020600020905b81548152906001019060200180831161124f57829003601f168201915b505050505081526020016002820180546112859061278e565b80601f01602080910402602001604051908101604052809291908181526020018280546112b19061278e565b80156112fe5780601f106112d3576101008083540402835291602001916112fe565b820191906000526020600020905b8154815290600101906020018083116112e157829003601f168201915b505050505081526020016003820154815260200160048201548152602001600582015481526020016006820180546113359061278e565b80601f01602080910402602001604051908101604052809291908181526020018280546113619061278e565b80156113ae5780601f10611383576101008083540402835291602001916113ae565b820191906000526020600020905b81548152906001019060200180831161139157829003601f168201915b50505091835250506007919091015460ff161515602090910152836113d4600184612849565b815181106113e4576113e461285c565b60200260200101819052506113f8816107d7565b82611404600184612849565b815181106114145761141461285c565b60209081029190910101526001016111b0565b5090939092509050565b600081815260056020908152604080832081516101008101909252805482526001810180548594840191906114659061278e565b80601f01602080910402602001604051908101604052809291908181526020018280546114919061278e565b80156114de5780601f106114b3576101008083540402835291602001916114de565b820191906000526020600020905b8154815290600101906020018083116114c157829003601f168201915b505050505081526020016002820180546114f79061278e565b80601f01602080910402602001604051908101604052809291908181526020018280546115239061278e565b80156115705780601f1061154557610100808354040283529160200191611570565b820191906000526020600020905b81548152906001019060200180831161155357829003601f168201915b505050505081526020016003820154815260200160048201548152602001600582015481526020016006820180546115a79061278e565b80601f01602080910402602001604051908101604052809291908181526020018280546115d39061278e565b80156116205780601f106115f557610100808354040283529160200191611620565b820191906000526020600020905b81548152906001019060200180831161160357829003601f168201915b50505091835250506007919091015460ff16151560209091015260a081015160808201519192509060008290036116655761165c81600361288b565b95945050505050565b606083015160009061167884606461288b565b61168291906128a2565b9050601481116116a15761169782600361288b565b9695505050505050565b603281116116b45761169782600261288b565b50949350505050565b6001600160a01b03918216600090815260016020908152604080832093909416825291909152205460ff1690565b336001600160a01b038616811480159061170c575061170a86826116bd565b155b1561173d5760405163711bec9160e11b81526001600160a01b03808316600483015287166024820152604401610a24565b610aef8686868686611802565b611752611890565b6001600160a01b03811661177c57604051631e4fbdf760e01b815260006004820152602401610a24565b611785816118bd565b50565b600061179483836104ef565b9392505050565b6001600160a01b0384166117c557604051632bfa23e760e11b815260006004820152602401610a24565b6001600160a01b0385166117ee57604051626a0d4560e21b815260006004820152602401610a24565b6117fb8585858585611a02565b5050505050565b6001600160a01b03841661182c57604051632bfa23e760e11b815260006004820152602401610a24565b6001600160a01b03851661185557604051626a0d4560e21b815260006004820152602401610a24565b604080516001808252602082018690528183019081526060820185905260808201909252906118878787848487611a02565b50505050505050565b6003546001600160a01b03163314610f365760405163118cdaa760e01b8152336004820152602401610a24565b600380546001600160a01b038381166001600160a01b0319831681179093556040519116919082907f8be0079c531659141344cd1fd0a4f28419497f9722a3daafe3b4186f6b6457e090600090a35050565b6001600160a01b03841661193957604051632bfa23e760e11b815260006004820152602401610a24565b60408051600180825260208201869052818301908152606082018590526080820190925290610aef600087848487611a02565b6001600160a01b0382166119955760405162ced3e160e81b815260006004820152602401610a24565b6001600160a01b03838116600081815260016020908152604080832094871680845294825291829020805460ff191686151590811790915591519182527f17307eab39ab6107e8899845ad3d59bd9653f200f220920489ca2b5937696c31910160405180910390a3505050565b611a0e85858585611a55565b6001600160a01b038416156117fb5782513390600103611a475760208481015190840151611a40838989858589611c69565b5050610aef565b610aef818787878787611d8d565b8051825114611a845781518151604051635b05999160e01b815260048101929092526024820152604401610a24565b3360005b8351811015611b8a576020818102858101820151908501909101516001600160a01b03881615611b3b576000828152602081815260408083206001600160a01b038c16845290915290205481811015611b14576040516303dee4c560e01b81526001600160a01b038a166004820152602481018290526044810183905260648101849052608401610a24565b6000838152602081815260408083206001600160a01b038d16845290915290209082900390555b6001600160a01b03871615611b80576000828152602081815260408083206001600160a01b038b16845290915281208054839290611b7a908490612a21565b90915550505b5050600101611a88565b508251600103611c0b5760208301516000906020840151909150856001600160a01b0316876001600160a01b0316846001600160a01b03167fc3d58168c5ae7397731d063d5bbf3d657854427343f4c083240f7aacaa2d0f628585604051611bfc929190918252602082015260400190565b60405180910390a450506117fb565b836001600160a01b0316856001600160a01b0316826001600160a01b03167f4a39dc06d4c0dbc64b70af90fd698a233a518aa5d07e595d983b8c0526c8f7fb8686604051611c5a929190612a34565b60405180910390a45050505050565b6001600160a01b0384163b15610aef5760405163f23a6e6160e01b81526001600160a01b0385169063f23a6e6190611cad9089908990889088908890600401612a59565b6020604051808303816000875af1925050508015611ce8575060408051601f3d908101601f19168201909252611ce591810190612a93565b60015b611d51573d808015611d16576040519150601f19603f3d011682016040523d82523d6000602084013e611d1b565b606091505b508051600003611d4957604051632bfa23e760e11b81526001600160a01b0386166004820152602401610a24565b805181602001fd5b6001600160e01b0319811663f23a6e6160e01b1461188757604051632bfa23e760e11b81526001600160a01b0386166004820152602401610a24565b6001600160a01b0384163b15610aef5760405163bc197c8160e01b81526001600160a01b0385169063bc197c8190611dd19089908990889088908890600401612ab0565b6020604051808303816000875af1925050508015611e0c575060408051601f3d908101601f19168201909252611e0991810190612a93565b60015b611e3a573d808015611d16576040519150601f19603f3d011682016040523d82523d6000602084013e611d1b565b6001600160e01b0319811663bc197c8160e01b1461188757604051632bfa23e760e11b81526001600160a01b0386166004820152602401610a24565b80356001600160a01b0381168114611e8d57600080fd5b919050565b60008060408385031215611ea557600080fd5b611eae83611e76565b946020939093013593505050565b6001600160e01b03198116811461178557600080fd5b600060208284031215611ee457600080fd5b813561179481611ebc565b600060208284031215611f0157600080fd5b5035919050565b60005b83811015611f23578181015183820152602001611f0b565b50506000910152565b60008151808452611f44816020860160208601611f08565b601f01601f19169290920160200192915050565b88815261010060208201526000611f7361010083018a611f2c565b8281036040840152611f85818a611f2c565b90508760608401528660808401528560a084015282810360c0840152611fab8186611f2c565b91505082151560e08301529998505050505050505050565b6020815260006117946020830184611f2c565b634e487b7160e01b600052604160045260246000fd5b604051601f8201601f191681016001600160401b038111828210171561201457612014611fd6565b604052919050565b60006001600160401b0382111561203557612035611fd6565b5060051b60200190565b600082601f83011261205057600080fd5b813561206361205e8261201c565b611fec565b8082825260208201915060208360051b86010192508583111561208557600080fd5b602085015b838110156120a257803583526020928301920161208a565b5095945050505050565b600082601f8301126120bd57600080fd5b8135602083016000806001600160401b038411156120dd576120dd611fd6565b50601f8301601f19166020016120f281611fec565b91505082815285838301111561210757600080fd5b82826020830137600092810160200192909252509392505050565b600080600080600060a0868803121561213a57600080fd5b61214386611e76565b945061215160208701611e76565b935060408601356001600160401b0381111561216c57600080fd5b6121788882890161203f565b93505060608601356001600160401b0381111561219457600080fd5b6121a08882890161203f565b92505060808601356001600160401b038111156121bc57600080fd5b6121c8888289016120ac565b9150509295509295909350565b600080604083850312156121e857600080fd5b82356001600160401b038111156121fe57600080fd5b8301601f8101851361220f57600080fd5b803561221d61205e8261201c565b8082825260208201915060208360051b85010192508783111561223f57600080fd5b6020840193505b828410156122685761225784611e76565b825260209384019390910190612246565b945050505060208301356001600160401b0381111561228657600080fd5b6122928582860161203f565b9150509250929050565b600081518084526020840193506020830160005b828110156122ce5781518652602095860195909101906001016122b0565b5093949350505050565b602081526000611794602083018461229c565b600080600080600060a0868803121561230357600080fd5b85356001600160401b0381111561231957600080fd5b612325888289016120ac565b95505060208601356001600160401b0381111561234157600080fd5b61234d888289016120ac565b945050604086013592506060860135915060808601356001600160401b038111156121bc57600080fd5b6000806040838503121561238a57600080fd5b61239383611e76565b9150602083013580151581146123a857600080fd5b809150509250929050565b60008083601f8401126123c557600080fd5b5081356001600160401b038111156123dc57600080fd5b6020830191508360208260051b85010111156123f757600080fd5b9250929050565b60008083601f84011261241057600080fd5b5081356001600160401b0381111561242757600080fd5b6020830191508360208285010111156123f757600080fd5b60008060008060008060008060a0898b03121561245b57600080fd5b61246489611e76565b975061247260208a01611e76565b965060408901356001600160401b0381111561248d57600080fd5b6124998b828c016123b3565b90975095505060608901356001600160401b038111156124b857600080fd5b6124c48b828c016123b3565b90955093505060808901356001600160401b038111156124e357600080fd5b6124ef8b828c016123fe565b999c989b5096995094979396929594505050565b600082825180855260208501945060208160051b8301016020850160005b8381101561255357601f1985840301885261253d838351611f2c565b6020988901989093509190910190600101612521565b50909695505050505050565b6000604082016040835280855180835260608501915060608160051b86010192506020870160005b8281101561263857605f19878603018452815180518652602081015161010060208801526125b9610100880182611f2c565b9050604082015187820360408901526125d28282611f2c565b915050606082015160608801526080820151608088015260a082015160a088015260c082015187820360c089015261260a8282611f2c565b91505060e0820151915061262260e088018315159052565b9550506020938401939190910190600101612587565b50505050828103602084015261165c8185612503565b6000806040838503121561266157600080fd5b8235915061267160208401611e76565b90509250929050565b6000806040838503121561268d57600080fd5b61269683611e76565b915061267160208401611e76565b60008060008060008060a087890312156126bd57600080fd5b6126c687611e76565b95506126d460208801611e76565b9450604087013593506060870135925060808701356001600160401b038111156126fd57600080fd5b61270989828a016123fe565b979a9699509497509295939492505050565b600080600080600060a0868803121561273357600080fd5b61273c86611e76565b945061274a60208701611e76565b9350604086013592506060860135915060808601356001600160401b038111156121bc57600080fd5b60006020828403121561278557600080fd5b61179482611e76565b600181811c908216806127a257607f821691505b6020821081036127c257634e487b7160e01b600052602260045260246000fd5b50919050565b7f68747470733a2f2f6d6f63636173696e2d61646a6163656e742d616e61636f6e81527f64612d3230312e6d7970696e6174612e636c6f75642f697066732f000000000060208201526000825161282681603b850160208701611f08565b91909101603b0192915050565b634e487b7160e01b600052601160045260246000fd5b8181038181111561051157610511612833565b634e487b7160e01b600052603260045260246000fd5b60006001820161288457612884612833565b5060010190565b808202811582820484141761051157610511612833565b6000826128bf57634e487b7160e01b600052601260045260246000fd5b500490565b6000816128d3576128d3612833565b506000190190565b601f82111561292257806000526020600020601f840160051c810160208510156129025750805b601f840160051c820191505b818110156117fb576000815560010161290e565b505050565b81516001600160401b0381111561294057612940611fd6565b6129548161294e845461278e565b846128db565b6020601f82116001811461298857600083156129705750848201515b600019600385901b1c1916600184901b1784556117fb565b600084815260208120601f198516915b828110156129b85787850151825560209485019460019092019101612998565b50848210156129d65786840151600019600387901b60f8161c191681555b50505050600190811b01905550565b6080815260006129f86080830187611f2c565b8560208401528460408401528281036060840152612a168185611f2c565b979650505050505050565b8082018082111561051157610511612833565b604081526000612a47604083018561229c565b828103602084015261165c818561229c565b6001600160a01b03868116825285166020820152604081018490526060810183905260a060808201819052600090612a1690830184611f2c565b600060208284031215612aa557600080fd5b815161179481611ebc565b6001600160a01b0386811682528516602082015260a060408201819052600090612adc9083018661229c565b8281036060840152612aee818661229c565b90508281036080840152612b028185611f2c565b9897505050505050505056fea26469706673582212206188e9c02ebba4c2c6d734d8fdc57b5995b27bf5af776dabd13161f46ab96e8564736f6c634300081c0033",
  "linkReferences": {},
  "deployedLinkReferences": {}
}